{
  "transactions": [
    {
      "hash": "0xe8db6bf20f99d8e4c23ddcaa76774a465ff269867a5e7a21b7d629379f0f5622",
      "transactionType": "CREATE",
      "contractName": "Token",
      "contractAddress": "0x24e5811456283842d1331839c028580ad55993f5",
      "function": null,
      "arguments": [
        "Test Foundry",
        "TEST",
        "18",
        "1000000000000000000000000"
      ],
      "transaction": {
        "from": "0xd0d211ccef07598946bb0df5ecee0bf75caf3ecc",
        "gas": "0x192cd6",
        "value": "0x0",
        "input": "0x608060405234801561000f575f80fd5b506040516108fe3803806108fe83398101604081905261002e9161017d565b838383835f61003d8582610284565b50600161004a8482610284565b506002805460ff191660ff841690811790915561006890600a610437565b6100729082610449565b6003819055335f81815260046020908152604080832085905551938452919290917fddf252ad1be2c89b69c2b068fc378daa952ba7f163c4a11628f55a4df523b3ef910160405180910390a35050505050505050610460565b634e487b7160e01b5f52604160045260245ffd5b5f82601f8301126100ee575f80fd5b81516001600160401b03811115610107576101076100cb565b604051601f8201601f19908116603f011681016001600160401b0381118282101715610135576101356100cb565b60405281815283820160200185101561014c575f80fd5b5f5b8281101561016a5760208186018101518383018201520161014e565b505f918101602001919091529392505050565b5f805f8060808587031215610190575f80fd5b84516001600160401b038111156101a5575f80fd5b6101b1878288016100df565b602087015190955090506001600160401b038111156101ce575f80fd5b6101da878288016100df565b935050604085015160ff811681146101f0575f80fd5b6060959095015193969295505050565b600181811c9082168061021457607f821691505b60208210810361023257634e487b7160e01b5f52602260045260245ffd5b50919050565b601f82111561027f57805f5260205f20601f840160051c8101602085101561025d5750805b601f840160051c820191505b8181101561027c575f8155600101610269565b50505b505050565b81516001600160401b0381111561029d5761029d6100cb565b6102b1816102ab8454610200565b84610238565b6020601f8211600181146102e3575f83156102cc5750848201515b5f19600385901b1c1916600184901b17845561027c565b5f84815260208120601f198516915b8281101561031257878501518255602094850194600190920191016102f2565b508482101561032f57868401515f19600387901b60f8161c191681555b50505050600190811b01905550565b634e487b7160e01b5f52601160045260245ffd5b6001815b600184111561038d578085048111156103715761037161033e565b600184161561037f57908102905b60019390931c928002610356565b935093915050565b5f826103a357506001610431565b816103af57505f610431565b81600181146103c557600281146103cf576103eb565b6001915050610431565b60ff8411156103e0576103e061033e565b50506001821b610431565b5060208310610133831016604e8410600b841016171561040e575081810a610431565b61041a5f198484610352565b805f190482111561042d5761042d61033e565b0290505b92915050565b5f6104428383610395565b9392505050565b80820281158282048414176104315761043161033e565b6104918061046d5f395ff3fe608060405234801561000f575f80fd5b5060043610610060575f3560e01c806306fdde031461006457806318160ddd14610082578063313ce5671461009957806340c10f19146100b857806342966c68146100cd57806395d89b41146100e0575b5f80fd5b61006c6100e8565b604051610079919061034c565b60405180910390f35b61008b60035481565b604051908152602001610079565b6002546100a69060ff1681565b60405160ff9091168152602001610079565b6100cb6100c6366004610397565b610173565b005b6100cb6100db3660046103cc565b610181565b61006c61018d565b5f80546100f4906103e3565b80601f0160208091040260200160405190810160405280929190818152602001828054610120906103e3565b801561016b5780601f106101425761010080835404028352916020019161016b565b820191905f5260205f20905b81548152906001019060200180831161014e57829003601f168201915b505050505081565b61017d828261019a565b5050565b61018a8161027b565b50565b600180546100f4906103e3565b6001600160a01b0382166101f55760405162461bcd60e51b815260206004820152601860248201527f4d696e7420746f20746865207a65726f2061646472657373000000000000000060448201526064015b60405180910390fd5b8060035f828254610206919061042f565b90915550506001600160a01b0382165f908152600460205260408120805483929061023290849061042f565b90915550506040518181526001600160a01b038316905f907fddf252ad1be2c89b69c2b068fc378daa952ba7f163c4a11628f55a4df523b3ef9060200160405180910390a35050565b335f908152600460205260409020548111156102d95760405162461bcd60e51b815260206004820152601b60248201527f4275726e20616d6f756e7420657863656564732062616c616e6365000000000060448201526064016101ec565b8060035f8282546102ea9190610448565b9091555050335f908152600460205260408120805483929061030d908490610448565b90915550506040518181525f9033907fddf252ad1be2c89b69c2b068fc378daa952ba7f163c4a11628f55a4df523b3ef9060200160405180910390a350565b602081525f82518060208401525f5b81811015610378576020818601810151604086840101520161035b565b505f604082850101526040601f19601f83011684010191505092915050565b5f80604083850312156103a8575f80fd5b82356001600160a01b03811681146103be575f80fd5b946020939093013593505050565b5f602082840312156103dc575f80fd5b5035919050565b600181811c908216806103f757607f821691505b60208210810361041557634e487b7160e01b5f52602260045260245ffd5b50919050565b634e487b7160e01b5f52601160045260245ffd5b808201808211156104425761044261041b565b92915050565b818103818111156104425761044261041b56fea2646970667358221220b2e21e6d5b4c50b988f9845fa61543f12e179975cca688d0dae5c54d091489c664736f6c634300081a0033000000000000000000000000000000000000000000000000000000000000008000000000000000000000000000000000000000000000000000000000000000c0000000000000000000000000000000000000000000000000000000000000001200000000000000000000000000000000000000000000d3c21bcecceda1000000000000000000000000000000000000000000000000000000000000000000000c5465737420466f756e647279000000000000000000000000000000000000000000000000000000000000000000000000000000000000000000000000000000045445535400000000000000000000000000000000000000000000000000000000",
        "nonce": "0x2",
        "chainId": "0xa4b1"
      },
      "additionalContracts": [],
      "isFixedGasLimit": false
    },
    {
      "hash": "0xf37db580aeaf8e6bd57ecf9a89c388386828176fe6001b8879d3f7857a36d81a",
      "transactionType": "CALL",
      "contractName": "Token",
      "contractAddress": "0x24e5811456283842d1331839c028580ad55993f5",
      "function": "mint(address,uint256)",
      "arguments": [
        "0xd0D211cCEF07598946bB0dF5ECee0bF75cAF3ECC",
        "300"
      ],
      "transaction": {
        "from": "0xd0d211ccef07598946bb0df5ecee0bf75caf3ecc",
        "to": "0x24e5811456283842d1331839c028580ad55993f5",
        "gas": "0x263ab",
        "value": "0x0",
        "input": "0x40c10f19000000000000000000000000d0d211ccef07598946bb0df5ecee0bf75caf3ecc000000000000000000000000000000000000000000000000000000000000012c",
        "nonce": "0x3",
        "chainId": "0xa4b1"
      },
      "additionalContracts": [],
      "isFixedGasLimit": false
    }
  ],
  "receipts": [
    {
      "status": "0x1",
      "cumulativeGasUsed": "0x209f59",
      "logs": [
        {
          "address": "0x24e5811456283842d1331839c028580ad55993f5",
          "topics": [
            "0xddf252ad1be2c89b69c2b068fc378daa952ba7f163c4a11628f55a4df523b3ef",
            "0x0000000000000000000000000000000000000000000000000000000000000000",
            "0x000000000000000000000000d0d211ccef07598946bb0df5ecee0bf75caf3ecc"
          ],
          "data": "0x00000000000000000000000000000b7abc627050305adf14a3d9e40000000000",
          "blockHash": "0x1249b9721e14aaa4a8623fde1e6c82f02e7ce85fc3bcfbcb8e6e9474d2633212",
          "blockNumber": "0x11334133",
          "transactionHash": "0xe8db6bf20f99d8e4c23ddcaa76774a465ff269867a5e7a21b7d629379f0f5622",
          "transactionIndex": "0x3",
          "logIndex": "0xb",
          "removed": false
        }
      ],
      "logsBloom": "0x00000000000000000000000000000000000000000000000000000000000000000000000000000000000000000000000000000000000000000800000000000080000000010000000000000008000000000000000000000000000000000000000000000000020000000000000000000800000000000000000000000010000000000000000000000000000000000000000000000000000000000000000000000000000000000000000000000000000000000000000000000000000000000000000000000002000000000000000000000000000000008000040000000000000020000000000000000000010000000000000000000000000000000000000000000000",
      "type": "0x2",
      "transactionHash": "0xe8db6bf20f99d8e4c23ddcaa76774a465ff269867a5e7a21b7d629379f0f5622",
      "transactionIndex": "0x3",
      "blockHash": "0x1249b9721e14aaa4a8623fde1e6c82f02e7ce85fc3bcfbcb8e6e9474d2633212",
      "blockNumber": "0x11334133",
      "gasUsed": "0x11c364",
      "effectiveGasPrice": "0x989680",
      "from": "0xd0d211ccef07598946bb0df5ecee0bf75caf3ecc",
      "to": null,
      "contractAddress": "0x24e5811456283842d1331839c028580ad55993f5",
      "gasUsedForL1": "0xb0e13",
      "l1BlockNumber": "0x147c9a4"
    },
    {
      "status": "0x1",
      "cumulativeGasUsed": "0x1ac51",
      "logs": [
        {
          "address": "0x24e5811456283842d1331839c028580ad55993f5",
          "topics": [
            "0xddf252ad1be2c89b69c2b068fc378daa952ba7f163c4a11628f55a4df523b3ef",
            "0x0000000000000000000000000000000000000000000000000000000000000000",
            "0x000000000000000000000000d0d211ccef07598946bb0df5ecee0bf75caf3ecc"
          ],
          "data": "0x000000000000000000000000000000000000000000000000000000000000012c",
          "blockHash": "0x60101b85707ca44ca4dbd865aa2870e7c750cfde2502678b8cfecd8b05757569",
          "blockNumber": "0x11334139",
          "transactionHash": "0xf37db580aeaf8e6bd57ecf9a89c388386828176fe6001b8879d3f7857a36d81a",
          "transactionIndex": "0x1",
          "logIndex": "0x0",
          "removed": false
        }
      ],
      "logsBloom": "0x00000000000000000000000000000000000000000000000000000000000000000000000000000000000000000000000000000000000000000800000000000080000000010000000000000008000000000000000000000000000000000000000000000000020000000000000000000800000000000000000000000010000000000000000000000000000000000000000000000000000000000000000000000000000000000000000000000000000000000000000000000000000000000000000000000002000000000000000000000000000000008000040000000000000020000000000000000000010000000000000000000000000000000000000000000000",
      "type": "0x2",
      "transactionHash": "0xf37db580aeaf8e6bd57ecf9a89c388386828176fe6001b8879d3f7857a36d81a",
      "transactionIndex": "0x1",
      "blockHash": "0x60101b85707ca44ca4dbd865aa2870e7c750cfde2502678b8cfecd8b05757569",
      "blockNumber": "0x11334139",
      "gasUsed": "0x1ac51",
      "effectiveGasPrice": "0x989680",
      "from": "0xd0d211ccef07598946bb0df5ecee0bf75caf3ecc",
      "to": "0x24e5811456283842d1331839c028580ad55993f5",
      "contractAddress": null,
      "gasUsedForL1": "0x12712",
      "l1BlockNumber": "0x147c9a4"
    }
  ],
  "libraries": [],
  "pending": [],
  "returns": {},
  "timestamp": 1735158723,
  "chain": 42161,
  "commit": "82e0a22"
}